:100000000C9434000C9446000C9446000C9446006A
:100010000C9446000C9446000C9446000C94460048
:100020000C9446000C9446000C9446000C94460038
:100030000C9446000C9446000C9446000C94460028
:100040000C9446000C9446000C9446000C94460018
:100050000C9446000C9446000C9446000C94460008
:100060000C9446000C94460011241FBECFEFD8E03C
:10007000DEBFCDBF21E0A0E0B1E001C01D92A930FC
:10008000B207E1F70E946D000C9454010C9400003B
:10009000CF93C62F5A9A5B9A5C9A5D9A5E9A5F9A42
:1000A0000E943401C33081F028F4C13049F0C230DD
:1000B00049F011C0C53061F048F0C63059F00BC0AE
:1000C0005A9809C05B9807C05C9805C05D9803C04A
:1000D0005E9801C05F98CF910895CF93DF9300D0D1
:1000E00000D0CDB7DEB70E94270184ED80930101D7
:1000F000109202010F2EF9E0AF2EF1E0BF2EF02D8D
:10010000EE24E394F12C4E2C5F2C83E091E0682EDA
:10011000DC017B2E88248394312C212C0F2EF3E0DC
:10012000CF2EF1E0DF2EF02D80910101F6018193B9
:100130006F0182E390E09A8389831AC0612FAB81BB
:10014000BC818D91BC83AB830E9448000E94310129
:10015000EFE9FFE03197F1F700C000001F5F1730B3
:1001600069F789819A8101979A838983892B41F064
:100170006B827C82182DE2CF01962F5F3F4F04C027
:10018000242D352D832D922D882319F0873089F069
:1001900020C04091010141FF06C040910201416031
:1001A00040930201E9CF409102014E7F409302014A
:1001B000E3CF8091010186FF06C080910201806833
:1001C000809302013BC0809102018F7780930201EE
:1001D00035C0609101014091010170E0FC0131974F
:1001E00002C075956795EA95E2F7617050E0022EBE
:1001F00002C0559547950A94E2F74170641769F07B
:1002000060910201A701082E02C0440F551F0A94F5
:10021000E2F7462B409302010EC050910201B70154
:10022000082E02C0660F771F0A94E2F7462F40950A
:10023000452340930201283008F49ECF80910201AB
:1002400080930101CA14DB0409F06ECF67CF84B13B
:100250008C6184B98AB18C6F8AB908952A9A2A98D8
:1002600008952B9A2B9808950F931F93CF93DF93A4
:100270002B98C0E0D0E0082F10E098010C2E02C0AF
:10028000359527950A94E2F720FF02C02C9A01C009
:100290002C980E942E012196C830D10571F7DF916C
:0C02A000CF911F910F910895F894FFCFAB
:00000001FF
